:020000020000FC
:1000000081E001E0801729F08017C1F50C94000011
:100010000000FFE1EEE1DDE1C8EF48E0CF2EDC2E8D
:10002000BE2EAD2E10E020E030E060E08894CC1CC5
:1000300017954A954030D9F748E08894DD1C2795FC
:100040004A954030D9F748E08894BB1C37954A95CB
:100050004030D9F740E0889448E0AA1C67954A955B
:10006000E1F7C11721F401F0D31729F40895C12F46
:10007000F22F0C943400E62FD32F0895D2E1CEE076
:10008000B1E2A1E148E0BD2ECA2EDC2EEB2E10E03D
:1000900020E030E050E0BB1C17954A954030D9F77E
:1000A00048E0CC1C27954A954030D9F748E0DD1C44
:1000B00037954A954030D9F748E0EE1C57954A9558
:1000C0004030D9F7A11729F401F0B31731F40C949B
:1000D0000000D22FA12F0C946500C52FB32F0895D7
:00000001FF
