:100000000C9472000C948B000C948B000C948B005D
:100010000C948B000C948B000C948B000C948B0034
:100020000C948B000C948B000C948B000C948B0024
:100030000C948B000C948B000C948B000C948B0014
:100040000C948B000C948B000C948B000C948B0004
:100050000C948B000C948B000C948B000C948B00F4
:100060000C948B000C948B000C948B000C948B00E4
:100070000C948B000C948B000C948B000C948B00D4
:100080000C948B000C948B000C948B000C948B00C4
:100090000C948B000C948B000C948B000C948B00B4
:1000A0000C948B000C948B000C948B000C948B00A4
:1000B0000C948B000C948B000C948B000C948B0094
:1000C0000C948B000C948B000C948B000C948B0084
:1000D0000C948B000C948B000C948B000C948B0074
:1000E0000C948B0011241FBECFEFD1E2DEBFCDBF39
:1000F00000E00CBF12E0A0E0B2E0E4E7F2E000E0D4
:100100000BBF02C007900D92AA30B107D9F70E9429
:10011000C4000C9438010C940000E0E0F2E0E80F19
:10012000F11D808182B9089526B130E002C0359575
:1001300027958A95E2F72095822F81700895DF93A5
:10014000CF9300D00F92CDB7DEB78FEF9FEFA4E033
:10015000B0E007C089819A81AB81BC810197A10978
:10016000B10989839A83AB83BC8389819A81AB81EE
:10017000BC810097A105B10569F70F900F900F9012
:100180000F90CF91DF910895EF92FF920F931F93FD
:10019000DF93CF9300D00F92CDB7DEB78FEF81B949
:1001A00082B987B18C7F87B98091060282B920E03D
:1001B0008FEFE82E8FEFF82E84E0082F112D309965
:1001C00048C02F5F822F6AE00E942C01E92FF0E0E7
:1001D000E050FE4F808182B9E982FA820B831C8352
:1001E0000BC089819A81AB81BC810197A109B109BA
:1001F00089839A83AB83BC8389819A81AB81BC81DB
:100200000097A105B10569F7DACF2150822F6AE086
:100210000E942C01E92FF0E0E050FE4F808182B96E
:10022000E982FA820B831C830BC089819A81AB819E
:10023000BC810197A109B10989839A83AB83BC83EF
:1002400089819A81AB81BC810097A105B10569F7CD
:10025000B6CF319BDACFB3CF991B79E004C0991F99
:10026000961708F0961B881F7A95C9F78095089510
:04027000F894FFCF30
:0A027400039F250D9949411F011950
:00000001FF
