:100000000C9472000C948B000C948B000C948B005D
:100010000C948B000C948B000C948B000C948B0034
:100020000C948B000C948B000C948B000C948B0024
:100030000C948B000C948B000C948B000C948B0014
:100040000C948B000C948B000C948B000C948B0004
:100050000C948B000C948B000C948B000C948B00F4
:100060000C948B000C948B000C948B000C948B00E4
:100070000C948B000C948B000C948B000C948B00D4
:100080000C948B000C948B000C948B000C948B00C4
:100090000C948B000C948B000C948B000C948B00B4
:1000A0000C948B000C948B000C948B000C948B00A4
:1000B0000C948B000C948B000C948B000C948B0094
:1000C0000C948B000C948B000C948B000C948B0084
:1000D0000C948B000C948B000C948B000C948B0074
:1000E0000C948B0011241FBECFEFD1E2DEBFCDBF39
:1000F00000E00CBF12E0A0E0B2E0E4EAF1E000E0D2
:100100000BBF02C007900D92AC31B107D9F70E9426
:100110008D000C94D0000C9400008091C100877F6A
:100120008093C10080E090E00E94C5000E94A00082
:1001300000002B9A0E94B5002B980E94B500F9CFC1
:100140000000000065E057E000000000000048E00B
:100150005A9500000000E1F757E0000000004A95C2
:10016000B9F76A95000081F7089541EF000050E962
:1001700000000000000068E9000000006A95F1F747
:100180005A95C9F74A9599F70895803041F0813022
:1001900039F00E94D0008130E1F7813009F00895F4
:0401A000F894FFCF01
:1001A40053686F72742070726573730D0A004C6F1C
:0C01B4006E67207072657373210D0A00E5
:00000001FF
