:100000000C9472000C948B000C948B000C948B005D
:100010000C948B000C948B000C948B000C948B0034
:100020000C948B000C948B000C948B000C948B0024
:100030000C948B000C948B000C948B000C948B0014
:100040000C948B000C948B000C948B000C948B0004
:100050000C948B000C948B000C948B000C948B00F4
:100060000C948B000C948B000C948B000C948B00E4
:100070000C948B000C948B000C948B000C948B00D4
:100080000C948B000C948B000C948B000C948B00C4
:100090000C948B000C948B000C948B000C948B00B4
:1000A0000C948B000C948B000C948B000C948B00A4
:1000B0000C948B000C948B000C948B000C948B0094
:1000C0000C948B000C948B000C948B000C948B0084
:1000D0000C948B000C948B000C948B000C948B0074
:1000E0000C948B0011241FBECFEFD1E2DEBFCDBF39
:1000F00000E00CBF12E0A0E0B2E0EEE9F1E000E0C9
:100100000BBF02C007900D92A030B107D9F70E9433
:100110008D000C94CD000C9400001F9385E00E948C
:10012000A5008CE184B985B92A9810E084E60E9484
:10013000A5001F5F1A30D1F72A9A10E084E60E94CA
:10014000A5001F5F1A30D1F7EFCF803041F081302A
:1001500039F013D08A958130E1F7813009F00895A4
:100160007BE165E7000000006A95E1F77A95000001
:10017000000009F4F4CF65E7F5CF2AE137E9000084
:100180003A95E9F72A950000000000000000000001
:0E01900009F4089537E90000F2CFF894FFCF8C
:00000001FF
