:020000020000FC
:1000000080E096B50E944700000031D000000DD07E
:10001000000021D0000083958A3011F082B9FBCF17
:100020008A958030C1F382B9FBCF442755276627D4
:1000300065E057E000000000000048E05A9500002D
:100040000000E1F757E0000000004A95B9F76A9513
:10005000000081F708954FE000005BE3000065E0D9
:100060006A95F1F75A95D9F74A95B9F7089541EF8E
:10007000000050E900000000000068E900000000F6
:100080006A95F1F75A95C9F74A9599F7089515EACF
:0A009000919F11E0010E902D0895DC
:00000001FF
