:100000000C9472000C9493000C9493000C94930045
:100010000C9493000C9493000C9493000C94930014
:100020000C9493000C9493000C9493000C94930004
:100030000C9493000C9493000C9493000C949300F4
:100040000C9493000C9493000C9493000C949300E4
:100050000C9493000C9493000C9493000C949300D4
:100060000C9493000C9493000C9493000C949300C4
:100070000C9493000C9493000C9493000C949300B4
:100080000C9493000C9493000C9493000C949300A4
:100090000C9493000C9493000C9493000C94930094
:1000A0000C9493000C9493000C9493000C94930084
:1000B0000C9493000C9493000C9493000C94930074
:1000C0000C9493000C9493000C9493000C94930064
:1000D0000C9493000C9493000C9493000C94930054
:1000E0000C94930011241FBECFEFD1E2DEBFCDBF31
:1000F00000E00CBF12E0A0E0B2E0E8EBF1E000E0CD
:100100000BBF02C007900D92A030B107D9F712E0E3
:10011000A0E0B2E001C01D92A130B107E1F70E945A
:10012000BB000C94DA000C940000DF93CF930F9285
:100130000F92CDB7DEB78FE789839FE39A838A81D9
:1001400081508A838A818823D1F78981815089836C
:100150008981882399F70F900F90CF91DF910895AF
:100160009093C5008093C40088E18093C10086E02D
:100170008093C20008950F931F9383E884BD81E0AC
:1001800085BD17BC279A84E08093000202E01EEF31
:1001900087B5843010F40093000287B5893F10F0D2
:1001A000109300020E94950087B590910002890F7C
:0801B00087BDEECFF894FFCFEC
:00000001FF
